{
  "_format": "hh-sol-artifact-1",
  "contractName": "Upload",
  "sourceName": "contracts/Upload.sol",
  "abi": [
    {
      "inputs": [
        {
          "internalType": "address",
          "name": "_user",
          "type": "address"
        },
        {
          "internalType": "string",
          "name": "url",
          "type": "string"
        }
      ],
      "name": "add",
      "outputs": [],
      "stateMutability": "nonpayable",
      "type": "function"
    },
    {
      "inputs": [
        {
          "internalType": "address",
          "name": "_user",
          "type": "address"
        }
      ],
      "name": "allow",
      "outputs": [],
      "stateMutability": "nonpayable",
      "type": "function"
    },
    {
      "inputs": [
        {
          "internalType": "address",
          "name": "_user",
          "type": "address"
        }
      ],
      "name": "deny",
      "outputs": [],
      "stateMutability": "nonpayable",
      "type": "function"
    },
    {
      "inputs": [
        {
          "internalType": "address",
          "name": "_user",
          "type": "address"
        }
      ],
      "name": "display",
      "outputs": [
        {
          "internalType": "string[]",
          "name": "",
          "type": "string[]"
        }
      ],
      "stateMutability": "view",
      "type": "function"
    },
    {
      "inputs": [],
      "name": "shareAcess",
      "outputs": [
        {
          "components": [
            {
              "internalType": "address",
              "name": "user",
              "type": "address"
            },
            {
              "internalType": "bool",
              "name": "access",
              "type": "bool"
            }
          ],
          "internalType": "struct Upload.Access[]",
          "name": "",
          "type": "tuple[]"
        }
      ],
      "stateMutability": "view",
      "type": "function"
    }
  ],
  "bytecode": "0x6080604052348015600f57600080fd5b506114308061001f6000396000f3fe608060405234801561001057600080fd5b50600436106100575760003560e01c806336d6da551461005c5780639c52a7f114610078578063a996450614610094578063eb39113f146100b2578063ff9913e8146100e2575b600080fd5b61007660048036038101906100719190610d2a565b6100fe565b005b610092600480360381019061008d9190610d86565b610173565b005b61009c61038f565b6040516100a99190610ebb565b60405180910390f35b6100cc60048036038101906100c79190610d86565b610498565b6040516100d9919061101e565b60405180910390f35b6100fc60048036038101906100f79190610d86565b6106ae565b005b6000803373ffffffffffffffffffffffffffffffffffffffff1673ffffffffffffffffffffffffffffffffffffffff1681526020019081526020016000208190806001815401808255809150506001900390600052602060002001600090919091909150908161016e9190611256565b505050565b6000600160003373ffffffffffffffffffffffffffffffffffffffff1673ffffffffffffffffffffffffffffffffffffffff16815260200190815260200160002060008373ffffffffffffffffffffffffffffffffffffffff1673ffffffffffffffffffffffffffffffffffffffff16815260200190815260200160002060006101000a81548160ff02191690831515021790555060005b600260003373ffffffffffffffffffffffffffffffffffffffff1673ffffffffffffffffffffffffffffffffffffffff1681526020019081526020016000208054905081101561038b578173ffffffffffffffffffffffffffffffffffffffff16600260003373ffffffffffffffffffffffffffffffffffffffff1673ffffffffffffffffffffffffffffffffffffffff16815260200190815260200160002082815481106102bd576102bc611328565b5b9060005260206000200160000160009054906101000a900473ffffffffffffffffffffffffffffffffffffffff1673ffffffffffffffffffffffffffffffffffffffff160361037e576000600260003373ffffffffffffffffffffffffffffffffffffffff1673ffffffffffffffffffffffffffffffffffffffff168152602001908152602001600020828154811061035957610358611328565b5b9060005260206000200160000160146101000a81548160ff0219169083151502179055505b808060010191505061020b565b5050565b6060600260003373ffffffffffffffffffffffffffffffffffffffff1673ffffffffffffffffffffffffffffffffffffffff168152602001908152602001600020805480602002602001604051908101604052809291908181526020016000905b8282101561048f578382906000526020600020016040518060400160405290816000820160009054906101000a900473ffffffffffffffffffffffffffffffffffffffff1673ffffffffffffffffffffffffffffffffffffffff1673ffffffffffffffffffffffffffffffffffffffff1681526020016000820160149054906101000a900460ff161515151581525050815260200190600101906103f0565b50505050905090565b60603373ffffffffffffffffffffffffffffffffffffffff168273ffffffffffffffffffffffffffffffffffffffff16148061055a5750600160003373ffffffffffffffffffffffffffffffffffffffff1673ffffffffffffffffffffffffffffffffffffffff16815260200190815260200160002060008373ffffffffffffffffffffffffffffffffffffffff1673ffffffffffffffffffffffffffffffffffffffff16815260200190815260200160002060009054906101000a900460ff165b610599576040517f08c379a0000000000000000000000000000000000000000000000000000000008152600401610590906113da565b60405180910390fd5b6000808373ffffffffffffffffffffffffffffffffffffffff1673ffffffffffffffffffffffffffffffffffffffff168152602001908152602001600020805480602002602001604051908101604052809291908181526020016000905b828210156106a35783829060005260206000200180546106169061106f565b80601f01602080910402602001604051908101604052809291908181526020018280546106429061106f565b801561068f5780601f106106645761010080835404028352916020019161068f565b820191906000526020600020905b81548152906001019060200180831161067257829003601f168201915b5050505050815260200190600101906105f7565b505050509050919050565b60018060003373ffffffffffffffffffffffffffffffffffffffff1673ffffffffffffffffffffffffffffffffffffffff16815260200190815260200160002060008373ffffffffffffffffffffffffffffffffffffffff1673ffffffffffffffffffffffffffffffffffffffff16815260200190815260200160002060006101000a81548160ff021916908315150217905550600360003373ffffffffffffffffffffffffffffffffffffffff1673ffffffffffffffffffffffffffffffffffffffff16815260200190815260200160002060008273ffffffffffffffffffffffffffffffffffffffff1673ffffffffffffffffffffffffffffffffffffffff16815260200190815260200160002060009054906101000a900460ff16156109de5760005b600260003373ffffffffffffffffffffffffffffffffffffffff1673ffffffffffffffffffffffffffffffffffffffff168152602001908152602001600020805490508110156109d8578173ffffffffffffffffffffffffffffffffffffffff16600260003373ffffffffffffffffffffffffffffffffffffffff1673ffffffffffffffffffffffffffffffffffffffff168152602001908152602001600020828154811061088657610885611328565b5b9060005260206000200160000160009054906101000a900473ffffffffffffffffffffffffffffffffffffffff1673ffffffffffffffffffffffffffffffffffffffff16036109cb57600260003373ffffffffffffffffffffffffffffffffffffffff1673ffffffffffffffffffffffffffffffffffffffff16815260200190815260200160002060405180604001604052808473ffffffffffffffffffffffffffffffffffffffff168152602001600115158152509080600181540180825580915050600190039060005260206000200160009091909190915060008201518160000160006101000a81548173ffffffffffffffffffffffffffffffffffffffff021916908373ffffffffffffffffffffffffffffffffffffffff16021790555060208201518160000160146101000a81548160ff02191690831515021790555050505b80806001019150506107d4565b50610b6f565b600260003373ffffffffffffffffffffffffffffffffffffffff1673ffffffffffffffffffffffffffffffffffffffff16815260200190815260200160002060405180604001604052808373ffffffffffffffffffffffffffffffffffffffff168152602001600115158152509080600181540180825580915050600190039060005260206000200160009091909190915060008201518160000160006101000a81548173ffffffffffffffffffffffffffffffffffffffff021916908373ffffffffffffffffffffffffffffffffffffffff16021790555060208201518160000160146101000a81548160ff02191690831515021790555050506001600360003373ffffffffffffffffffffffffffffffffffffffff1673ffffffffffffffffffffffffffffffffffffffff16815260200190815260200160002060008373ffffffffffffffffffffffffffffffffffffffff1673ffffffffffffffffffffffffffffffffffffffff16815260200190815260200160002060006101000a81548160ff0219169083151502179055505b50565b6000604051905090565b600080fd5b600080fd5b600073ffffffffffffffffffffffffffffffffffffffff82169050919050565b6000610bb182610b86565b9050919050565b610bc181610ba6565b8114610bcc57600080fd5b50565b600081359050610bde81610bb8565b92915050565b600080fd5b600080fd5b6000601f19601f8301169050919050565b7f4e487b7100000000000000000000000000000000000000000000000000000000600052604160045260246000fd5b610c3782610bee565b810181811067ffffffffffffffff82111715610c5657610c55610bff565b5b80604052505050565b6000610c69610b72565b9050610c758282610c2e565b919050565b600067ffffffffffffffff821115610c9557610c94610bff565b5b610c9e82610bee565b9050602081019050919050565b82818337600083830152505050565b6000610ccd610cc884610c7a565b610c5f565b905082815260208101848484011115610ce957610ce8610be9565b5b610cf4848285610cab565b509392505050565b600082601f830112610d1157610d10610be4565b5b8135610d21848260208601610cba565b91505092915050565b60008060408385031215610d4157610d40610b7c565b5b6000610d4f85828601610bcf565b925050602083013567ffffffffffffffff811115610d7057610d6f610b81565b5b610d7c85828601610cfc565b9150509250929050565b600060208284031215610d9c57610d9b610b7c565b5b6000610daa84828501610bcf565b91505092915050565b600081519050919050565b600082825260208201905092915050565b6000819050602082019050919050565b610de881610ba6565b82525050565b60008115159050919050565b610e0381610dee565b82525050565b604082016000820151610e1f6000850182610ddf565b506020820151610e326020850182610dfa565b50505050565b6000610e448383610e09565b60408301905092915050565b6000602082019050919050565b6000610e6882610db3565b610e728185610dbe565b9350610e7d83610dcf565b8060005b83811015610eae578151610e958882610e38565b9750610ea083610e50565b925050600181019050610e81565b5085935050505092915050565b60006020820190508181036000830152610ed58184610e5d565b905092915050565b600081519050919050565b600082825260208201905092915050565b6000819050602082019050919050565b600081519050919050565b600082825260208201905092915050565b60005b83811015610f43578082015181840152602081019050610f28565b60008484015250505050565b6000610f5a82610f09565b610f648185610f14565b9350610f74818560208601610f25565b610f7d81610bee565b840191505092915050565b6000610f948383610f4f565b905092915050565b6000602082019050919050565b6000610fb482610edd565b610fbe8185610ee8565b935083602082028501610fd085610ef9565b8060005b8581101561100c5784840389528151610fed8582610f88565b9450610ff883610f9c565b925060208a01995050600181019050610fd4565b50829750879550505050505092915050565b600060208201905081810360008301526110388184610fa9565b905092915050565b7f4e487b7100000000000000000000000000000000000000000000000000000000600052602260045260246000fd5b6000600282049050600182168061108757607f821691505b60208210810361109a57611099611040565b5b50919050565b60008190508160005260206000209050919050565b60006020601f8301049050919050565b600082821b905092915050565b6000600883026111027fffffffffffffffffffffffffffffffffffffffffffffffffffffffffffffffff826110c5565b61110c86836110c5565b95508019841693508086168417925050509392505050565b6000819050919050565b6000819050919050565b600061115361114e61114984611124565b61112e565b611124565b9050919050565b6000819050919050565b61116d83611138565b6111816111798261115a565b8484546110d2565b825550505050565b600090565b611196611189565b6111a1818484611164565b505050565b5b818110156111c5576111ba60008261118e565b6001810190506111a7565b5050565b601f82111561120a576111db816110a0565b6111e4846110b5565b810160208510156111f3578190505b6112076111ff856110b5565b8301826111a6565b50505b505050565b600082821c905092915050565b600061122d6000198460080261120f565b1980831691505092915050565b6000611246838361121c565b9150826002028217905092915050565b61125f82610f09565b67ffffffffffffffff81111561127857611277610bff565b5b611282825461106f565b61128d8282856111c9565b600060209050601f8311600181146112c057600084156112ae578287015190505b6112b8858261123a565b865550611320565b601f1984166112ce866110a0565b60005b828110156112f6578489015182556001820191506020850194506020810190506112d1565b86831015611313578489015161130f601f89168261121c565b8355505b6001600288020188555050505b505050505050565b7f4e487b7100000000000000000000000000000000000000000000000000000000600052603260045260246000fd5b600082825260208201905092915050565b7f596f7520617265206e6f7420616c6c6f77656420746f2076696577207468697360008201527f2064617461000000000000000000000000000000000000000000000000000000602082015250565b60006113c4602583611357565b91506113cf82611368565b604082019050919050565b600060208201905081810360008301526113f3816113b7565b905091905056fea264697066735822122055db64da2fdfdc7d798a0948b9996da6ab7fcad5b87ff08003ead9cd514a4a8c64736f6c634300081b0033",
  "linkReferences": {},
  "deployedLinkReferences": {}
}